:100000000C9411020C9444020C9444020C9444028B
:100010000C9444020C9444020C9444020C94440248
:100020000C9444020C9444020C9444020C94440238
:100030000C9444020C9444020C94A3180C944402B3
:100040000C9444020C9444020C9444020C94440218
:100050000C9444020C9444020C9444020C94440208
:100060000C9444020C94D9020C94D9020C944402CE
:100070000C9403030C9403030C9444020C94440268
:100080000C9444020C9444020C9444020C944402D8
:100090000C9444020C9444020C9444020C944402C8
:1000A0000C9444020C9444020C9444020C944402B8
:1000B0000C9444020C9444020C9444020C944402A8
:1000C0000C9444020C9444020C9444020C94440298
:1000D0000C9444020C942E2D0C9444020C946D2D1F
:1000E0000C9444020C9444020C9481030C948103FC
:1000F0000C9444020C94AB030C94AB030C94440298
:100100000C9444020C9444020C9444020C94440257
:100110000C9444020C9444020C9444020C94440247
:100120000C9444020C9444020C9444020C94440237
:100130000C9444020C9444020C9444020C94440227
:100140000C9444020C9444020C9444020C94440217
:100150000C9444020C9444020C9444020C94440207
:100160000C942D030C942D030C9444020C9457030F
:100170000C9457030C9444020C9444020C944402D3
:100180000C9444020C9444020C9444020C944402D7
:100190000C9444020C9444020C9444020C944402C7
:1001A0000C9444020C9444020C9444020C944402B7
:1001B0000C9444020C9444020C9444020C944402A7
:1001C0000C9444020C9444020C9444020C94440297
:1001D0000C9444020C9444020C9444020C94AF021C
:1001E0000C94AF020C94440207634236B79BD8A725
:1001F0001A39685618AEBAAB558C1D3CB7CC57634C
:10020000BD6DEDFD753EF6177231BF000000803FF9
:1002100005A84CCDB2D44EB93836A9020C50B991CC
:100220008688083CA6AAAA2ABE000000803F627504
:10023000696C64206E756D626572203D20256C646A
:100240000D0A00535441525420286275696C642091
:100250006E756D626572203A20256C64290D0A0066
:100260004E4F20434F4D4D2E0D0A007365632063A2
:100270006E743D256420534F4E41523D25642C2021
:1002800064626C63686B3D25642C74726963686B8F
:100290003D25640D0A0073656320636E743D25641B
:1002A0000D0A0074696D656F7574210A00696E69C5
:1002B000742C2073656E6420666C75736820636FA0
:1002C0006D6D616E640A0069646C652C2073656EE7
:1002D000642076657273696F6E20636865636B0A6C
:1002E00000636865636B206E65696768626F722082
:1002F00076657273696F6E730A00757064617465F8
:1003000020636865636B20256C640A006E6F64650A
:100310002025643A20256C64202825303478290A69
:100320000073656E6420737461727420757064610B
:10033000746520636F6D6D616E640A0073656E6431
:10034000206669726D7761726520626C6F636B0AFB
:100350000066696E69736865642073656E64696EB2
:1003600067206669726D776172650A007278207025
:10037000696E67207265710A0072782070696E6715
:10038000207265706C790A007278206D61696E74F4
:1003900020636D640A007374617274207570646107
:1003A00074650A0066696E697368207570646174AB
:1003B000650A006E6577206372633A2025303478D1
:1003C0000A00637572206372633A20253034780A1C
:1003D00000676F6F64206372630A00626164206368
:1003E00072630A0061626F72742075706461746573
:1003F0000A0072657365740A007278206669726D0E
:100400007761726520626C6F636B0A007278206698
:100410006C757368206275666665720A0000AB1CB5
:10042000B01C11241FBECFEFDFE3DEBFCDBF00E065
:100430000CBF10E2A0E0B0E2ECE7FBE600E00BBF8F
:1004400002C007900D92A03DB107D9F71BBE1BE279
:10045000A0EDB0E201C01D92A93AB107E1F714E0A6
:10046000C0E2D4E000E006C022970109FE010BBF04
:100470000E94C932CE31D10780E00807A9F71BBE20
:100480000E94F7190C94AB350C9400008130910553
:10049000D9F58FEF99E260EA7BE00E94CA1D82E7FE
:1004A00099E260EA78E00E94CA1D83EF98E260EB6F
:1004B00078E00E94CA1D84E798E260EA79E00E9431
:1004C000CA1D85EF97E260EB79E00E94CA1D86E7BE
:1004D00097E260EA7AE00E94CA1D87EF96E260EB3D
:1004E0007AE00E94CA1D8EEE90E20E94C42185EE41
:1004F00090E260EC78E00E945C208CED90E260EA93
:1005000074E00E94F0200895009741F58CED90E290
:100510000E94162185EE90E20E9481208EEE90E2EC
:100520000E946A2287EF96E20E948C1F86E797E27C
:100530000E948C1F85EF97E20E948C1F84E798E24F
:100540000E948C1F83EF98E20E948C1F82E799E241
:100550000E948C1F8FEF99E20E948C1F08951F92BA
:100560000F920FB60F920BB60F9211242F933F9359
:100570004F935F936F937F938F939F93AF93BF93AB
:10058000EF93FF938FEF99E20E941320FF91EF9179
:10059000BF91AF919F918F917F916F915F914F919B
:1005A0003F912F910F900BBE0F900FBE0F901F9099
:1005B00018951F920F920FB60F920BB60F9211243F
:1005C0002F933F934F935F936F937F938F939F935B
:1005D000AF93BF93EF93FF9382E799E20E941320BA
:1005E000FF91EF91BF91AF919F918F917F916F910B
:1005F0005F914F913F912F910F900BBE0F900FBEC7
:100600000F901F9018951F920F920FB60F920BB676
:100610000F9211242F933F934F935F936F937F9388
:100620008F939F93AF93BF93EF93FF9383EF98E2E2
:100630000E941320FF91EF91BF91AF919F918F91F5
:100640007F916F915F914F913F912F910F900BBED2
:100650000F900FBE0F901F9018951F920F920FB61C
:100660000F920BB60F9211242F933F934F935F93EA
:100670006F937F938F939F93AF93BF93EF93FF936A
:1006800084E798E20E941320FF91EF91BF91AF9110
:100690009F918F917F916F915F914F913F912F919A
:1006A0000F900BBE0F900FBE0F901F9018951F92CA
:1006B0000F920FB60F920BB60F9211242F933F9308
:1006C0004F935F936F937F938F939F93AF93BF935A
:1006D000EF93FF9385EF97E20E941320FF91EF9134
:1006E000BF91AF919F918F917F916F915F914F914A
:1006F0003F912F910F900BBE0F900FBE0F901F9048
:1007000018951F920F920FB60F920BB60F921124ED
:100710002F933F934F935F936F937F938F939F9309
:10072000AF93BF93EF93FF9386E797E20E94132066
:10073000FF91EF91BF91AF919F918F917F916F91B9
:100740005F914F913F912F910F900BBE0F900FBE75
:100750000F901F9018951F920F920FB60F920BB625
:100760000F9211242F933F934F935F936F937F9337
:100770008F939F93AF93BF93EF93FF9387EF96E28F
:100780000E941320FF91EF91BF91AF919F918F91A4
:100790007F916F915F914F913F912F910F900BBE81
:1007A0000F900FBE0F901F901895AAECB1E092E049
:1007B0009C93E82FF0E084911C9208950F931F936F
:1007C000CF93DF938091500082608093500080919E
:1007D000510081FFFCCF88ED84BFC1E0C093400091
:1007E000C093600084BFE0E9F0E0C683E0E2F6E099
:1007F0008BE086838183E0EAF6E0C2838FEF99E2A3
:100800006EE57AE240E450E00E94FF1D8FEF99E22E
:100810006EE17AE240E450E00E940F1E8FEF99E211
:1008200040E052EC61E070E020E001E00E94AD1E8B
:100830008FEF99E261EF79E20E94052082E799E269
:1008400061ED79E240E250E00E94FF1D82E799E20B
:1008500061E979E240E450E00E940F1E82E799E2EC
:1008600040E052EC61E070E020E00E94AD1E8EEEB0
:1008700090E262E779E20E946B2283EF98E262E500
:1008800079E240E250E00E94FF1D83EF98E262E1CE
:1008900079E240E450E00E940F1E83EF98E240E0CE
:1008A00052EC61E070E020E00E94AD1E8EEE90E21E
:1008B00063EF78E20E946B2284E798E263ED78E2CE
:1008C00040E250E00E94FF1D84E798E263E978E28D
:1008D00040E450E00E940F1E84E798E240E052ECB2
:1008E00061E070E020E00E94AD1E8EEE90E264E7D1
:1008F00078E20E946B2285EF97E264E578E240E2BD
:1009000050E00E94FF1D85EF97E264E178E240E449
:1009100050E00E940F1E85EF97E240E052EC61E04C
:1009200070E020E00E94AD1E8EEE90E265EF77E26F
:100930000E946B2286E797E265ED77E240E250E0A5
:100940000E94FF1D86E797E265E977E240E450E008
:100950000E940F1E86E797E240E052EC61E070E0F3
:1009600020E00E94AD1E8EEE90E266E777E20E94E4
:100970006B2287EF96E266E577E240E250E00E9464
:10098000FF1D87EF96E266E177E240E450E00E94C7
:100990000F1E87EF96E240E052EC61E070E020E04D
:1009A0000E94AD1E8EEE90E267EF76E20E946B220F
:1009B00000E012E082E080930002D0E1F801D183F0
:1009C000828385EC838384E0848380E20E94D50364
:1009D000F801848781E20E94D503F8018587C0A3CE
:1009E00088E081A3C2A314A215A2C0A7D1A7C2A761
:1009F00014A615A6C0AB88E181ABC2AB14AA15AA98
:100A0000C0AF80E281AFC2AF14AE15AEE0E0F8E057
:100A100086E0809300081182128213821482C683BA
:100A2000178210A211A28DE790E086A397A383E01E
:100A3000E0EAF0E082837894DF91CF911F910F91EB
:100A40000895E0E8F4E08BE9858381818860818303
:100A5000848181608483089580EEE0E8F4E08683F9
:100A60008091840485FFFCCFE0E8F4E01782809158
:100A7000840485FFFCCF81E5E0E8F4E08783E0E8CB
:100A8000F4E08091840485FFFACF83E0838380EED5
:100A900086838091840485FFFCCF82E0E0E8F4E067
:100AA0008783E0E8F4E08091840485FFFACF83E057
:100AB000838381EE86838091840485FFFCCF30910F
:100AC000870482E0E0E8F4E083838091840487FF78
:100AD000FCCF2091870487E0E0E8F4E08383932F44
:100AE00080E0820F911D089580EEE0E8F4E08683B7
:100AF0008091840485FFFCCFE0E8F4E017828091C8
:100B0000840485FFFCCF81E5E0E8F4E08783E0E83A
:100B1000F4E08091840485FFFACF83E0838380EE44
:100B200086838091840485FFFCCF82E0E0E8F4E0D6
:100B30008783E0E8F4E08091840485FFFACF83E0C6
:100B4000838381EE86838091840485FFFCCF80912E
:100B5000870482E0E0E8F4E0838340E050E0BA01FB
:100B60008091840487FD0CC04F5F5F4F6F4F7F4FB4
:100B700041308AE6580788E1680780E0780781F706
:100B80008091870487E0E0E8F4E0838381E04030EF
:100B90009AE6590798E1690790E0790708F080E044
:100BA00008952F923F924F925F926F927F928F9211
:100BB0009F92AF92BF92CF92DF92EF92FF920F93EC
:100BC0001F93CF93DF93CDB7DEB72F97CDBFDEBF97
:100BD0008C018230910571F0833091051CF40097EF
:100BE000F1F0E6C18330910529F18430910509F0D7
:100BF000DFC135C00F2EF0E08F2EF0E09F2EF0E029
:100C0000AF2EF0E0BF2EF02D0F2EF0E0CF2EF0E053
:100C1000DF2EF0E8EF2EFFEBFF2EF02D34C00F2E6D
:100C2000F0E08F2EF0E09F2EF0E8AF2EFFE3BF2E16
:100C3000F02D0AC00F2EF0E08F2EF0E09F2EF0E88E
:100C4000AF2EFFEBBF2EF02D0F2EF0E0CF2EF0E0F9
:100C5000DF2EF0E0EF2EF0E0FF2EF02D14C00F2E6F
:100C6000F0E08F2EF0E09F2EF0E0AF2EF0E0BF2EF0
:100C7000F02D0F2EF0E0CF2EF0E0DF2EF0E8EF2E7B
:100C8000FFE3FF2EF02D40905520509056206090AD
:100C9000572070905820F801EE0FFF1FEE0FFF1F36
:100CA000E15BF44D608171818281938120913B2BC6
:100CB00030913C2B40913D2B50913E2B0E94082FB0
:100CC00069837A838B839C83C301B201A701960158
:100CD0000E94C2319B01AC0169817A818B819C8128
:100CE0000E94092F69837D838E839F83F801EE0F15
:100CF000FF1FEE0FFF1FE959F44D60817181828162
:100D0000938120913F2B3091402B4091412B50916A
:100D1000422B0E94082F6B017C01C301B201A50187
:100D200094010E94C2319B01AC01C701B6010E942F
:100D3000092F362E272E8887998759814D813E812C
:100D40002F81852F942FA32FB22FBC01CD01FA0143
:100D50000F2F1E2F232F3B2FA90198010E94C23174
:100D60006B017C01A10138852985852F942FA32F44
:100D7000B22FBC01CD01F1010F2F1E2F232F3B2FCE
:100D8000A90198010E94C2319B01AC01C701B601C3
:100D90000E94092F6E877F878C01472F862F942F03
:100DA000A02FB12FBC01CD010E942F322B013C019D
:100DB0005E854F85852F942FA02FB12FBC01CD01CB
:100DC00020E030E0A9010E946D2F882309F4F0C0D3
:100DD000C0904B2BD0904C2BE0904D2BF0904E2B95
:100DE000C701B6010E94712F4B015C01C701B6011A
:100DF0000E9425326A877B878C879D87C0902D2033
:100E0000D0902E20E0902F20F090302059814D81FD
:100E10003E812F81852F942FA32FB22FBC01CD01AE
:100E2000A50194010E94C2314B015C01A1013885EA
:100E30002985852F942FA32FB22FBC01CD012A85A0
:100E40003B854C855D850E94C2319B01AC01C5018B
:100E5000B4010E94092F209131203091322040911D
:100E60003320509134200E94C231A30192010E948C
:100E7000742F20E030E040E85FE30E94092F6A878A
:100E80007B878C879D8780904D2090904E20A090EE
:100E90004F20B0905020B7FAB094B7F8B094C70183
:100EA000B601A30192010E94742F20E030E040E8D7
:100EB0005FE30E94082F9B01AC01C501B4010E94B1
:100EC000C231A70196010E94C231A70196010E947A
:100ED000C231FE85EF85502F412F0F2F1E2F252F5A
:100EE000342FA90198010E94742F9B01AC016A85DF
:100EF0007B858C859D850E94C231C62EF72E882E5B
:100F0000E92E862F9F2DA82DBE2DBC01CD01F98184
:100F1000ED815E814F810F2F1E2F252F342FA901C8
:100F200098010E94C231A30192010E94742F9B017B
:100F3000AC016091D4207091D5208091D620909101
:100F4000D7200E94092FDC01CB018093D4209093FD
:100F5000D520A093D620B093D7208C2D9F2DA82DDF
:100F6000BE2DBC01CD01F101588549850F2F1E2FE3
:100F7000252F342FA90198010E94C231A3019201AB
:100F80000E94742F9B01AC016091D0207091D12000
:100F90008091D2209091D3200E94092FDC01CB01B7
:100FA0008093D0209093D120A093D220B093D320CF
:100FB0002F96CDBFDEBFDF91CF911F910F91FF9094
:100FC000EF90DF90CF90BF90AF909F908F907F90E9
:100FD0006F905F904F903F902F9008952F923F9287
:100FE0004F925F926F927F928F929F92AF92BF9239
:100FF000CF92DF92EF92FF920F931F93CF93DF93E5
:10100000CDB7DEB76E97CDBFDEBFC0904B2BD09073
:101010004C2BE0904D2BF0904E2B809051209090D7
:101020005220A0905320B0905420C701B6010E94D6
:10103000712F6D877E878F87988B409039205090D5
:101040003A2060903B2070903C20C501B4012D8572
:101050003E854F8558890E94C23169837A838B838C
:101060009C83C301B2012091432B3091442B4091CA
:10107000452B5091462B0E94C2319B01AC016981E6
:101080007A818B819C810E94082F362E272E89839E
:101090009987C701B6010E9425326D837E838F83B5
:1010A0009887C501B4012D813E814F8158850E94EA
:1010B000C2316B017C01C301B2012091472B3091F9
:1010C000482B4091492B50914A2B0E94C2319B01E1
:1010D000AC01C701B6010E94082FF62EE72EC82EDC
:1010E000892E80E090E0DC018093D4209093D5207D
:1010F000A093D620B093D7208093D0209093D12076
:10110000A093D220B093D32003EC1AE280E090E0C9
:101110005C01D8018D918D01882319F0C5010E94D1
:10112000D1050894A11CB11CB6E0AB16B10489F737
:10113000A10139812985852F922DA32FB22FBC01C2
:10114000CD012091D4203091D5204091D6205091CE
:10115000D7200E94092F362E272E182F092FA701DE
:10116000852F9E2DAC2DB82DBC01CD012091D02016
:101170003091D1204091D2205091D3200E94092F4C
:10118000862E472EB82EA92E80913B2B90913C2B7A
:10119000A0913D2BB0913E2B89879A87AB87BC8766
:1011A00080913F2B9091402BA091412BB091422BED
:1011B000898B9A8BAB8BBC8BC0903520D09036201E
:1011C000E0903720F090382029853A854B855C8562
:1011D0005058C701B6010E94C2319B01AC01F10118
:1011E000B8018F2F9E2FA72FB62FBC01CD010E94D3
:1011F000092F698F7A8F8B8F9C8F29893A894B8928
:101200005C895058C701B6010E94C2319B01AC01F4
:10121000B501882D942DA72FB62FBC01CD010E94BA
:10122000092F362E272E8D8F9E8F8090432B9090E6
:10123000442BA090452BB090462B8091472B90914A
:10124000482BA091492BB0914A2B89839A83AB8379
:10125000BC83C501B401A50194010E94C2316B0198
:101260007C0169817A818B819C819B01AC010E9408
:10127000C2319B01AC01C701B6010E94092F0E9437
:101280002F326B017C014090592050905A20609081
:101290005B2070905C2060E070E080E89FEB209124
:1012A000292030912A2040912B2050912C200E94FF
:1012B000742F6D8B7E8B8F8B988FC501B401A70126
:1012C00096010E94742F9B01AC016D817E818F81FC
:1012D00098850E94C2316D837E838F839887698150
:1012E0007A818B819C81A70196010E94742F9B01BA
:1012F000AC016D857E858F8598890E94C2319B01E6
:10130000AC016D817E818F8198850E94082F9B01A1
:10131000AC016D897E898F89988D0E94C231A301AD
:1013200092010E94C23120914B2B30914C2B409165
:101330004D2B50914E2B0E94092F8B017C01862F43
:10134000912FAE2DBF2D80934B2B90934C2BA093C0
:101350004D2BB0934E2BBC01CD0120ED3FE049EC6D
:1013600050E40E944E311816B4F4802F912FAE2D08
:10137000BF2DBC01CD0120ED3FE049EC50E40E94BF
:10138000082FDC01CB0180934B2B90934C2BA09327
:101390004D2BB0934E2BC0904B2BD0904C2BE0900C
:1013A0004D2BF0904E2BC701B60120E030E0A90193
:1013B0000E946D2F87FF12C0C701B60120ED3FE0EC
:1013C00049EC50E40E94092FDC01CB0180934B2BA8
:1013D00090934C2BA0934D2BB0934E2B598D4A8D4F
:1013E0003B8D2C8D852F942FA32FB22FBC01CD01C7
:1013F000A30192010E94C2319B01AC01C501B4015D
:101400000E94092F062FB72EC82EA92E862F9B2D9E
:10141000AC2DBA2D8093432B9093442BA093452B56
:10142000B093462BA1013D8D2E8D852F922DA32F9C
:10143000B22FBC01CD01A30192010E94C2319B01D8
:10144000AC0169817A818B819C810E94092F162FC2
:10145000872EF82EE92E9701862F982DA32FB22FD5
:101460008093472B9093482BA093492BB0934A2B02
:10147000802F9B2DAC2DBA2DBC01CD01A301920173
:101480000E94C2319B01AC0169857A858B859C8560
:101490000E94092FDC01CB0180933B2B90933C2BC6
:1014A000A0933D2BB0933E2B9701812F982DA32F16
:1014B000B22FBC01CD01A30192010E94C2319B0158
:1014C000AC0169897A898B899C890E94092FDC018A
:1014D000CB0180933F2B9093402BA093412BB09353
:1014E000422B50914B2B40914C2B30914D2B209106
:1014F0004E2B852F942FA32FB22FBC01CD016E96BA
:10150000CDBFDEBFDF91CF911F910F91FF90EF9084
:10151000DF90CF90BF90AF909F908F907F906F9013
:101520005F904F903F902F9008952F923F924F924F
:101530005F926F927F928F929F92AF92BF92CF9263
:10154000DF92EF92FF920F931F93CF93DF93CDB76C
:10155000DEB72F97CDBFDEBF8C018230910571F0D1
:10156000833091051CF40097F1F0E6C183309105BA
:1015700029F18430910509F0DFC135C00F2EF0E06C
:101580008F2EF0E09F2EF0E0AF2EF0E0BF2EF02D7A
:101590000F2EF0E0CF2EF0E0DF2EF0E8EF2EFFEB85
:1015A000FF2EF02D34C00F2EF0E08F2EF0E09F2E96
:1015B000F0E8AF2EFFE3BF2EF02D0AC00F2EF0E0B3
:1015C0008F2EF0E09F2EF0E8AF2EFFEBBF2EF02D18
:1015D0000F2EF0E0CF2EF0E0DF2EF0E0EF2EF0E067
:1015E000FF2EF02D14C00F2EF0E08F2EF0E09F2E76
:1015F000F0E0AF2EF0E0BF2EF02D0F2EF0E0CF2E5A
:10160000F0E0DF2EF0E8EF2EFFE3FF2EF02D40900C
:101610005520509056206090572070905820F80127
:10162000EE0FFF1FEE0FFF1FE55FF44D608171812C
:10163000828193812091F72A3091F82A4091F92AEA
:101640005091FA2A0E94082F69837A838B839C83A6
:10165000C301B201A70196010E94C2319B01AC01F6
:1016600069817A818B819C810E94092F69837D83A6
:101670008E839F83F801EE0FFF1FEE0FFF1FED5DBE
:10168000F44D60817181828193812091FB2A309198
:10169000FC2A4091FD2A5091FE2A0E94082F6B01DE
:1016A0007C01C301B201A50194010E94C2319B01DA
:1016B000AC01C701B6010E94092F362E272E88875C
:1016C000998759814D813E812F81852F942FA32F9A
:1016D000B22FBC01CD01FA010F2F1E2F232F3B2F5C
:1016E000A90198010E94C2316B017C01A1013885DA
:1016F0002985852F942FA32FB22FBC01CD01F10195
:101700000F2F1E2F232F3B2FA90198010E94C231BA
:101710009B01AC01C701B6010E94092F6E877F872C
:101720008C01472F862F942FA02FB12FBC01CD0104
:101730000E942F322B013C015E854F85852F942F0F
:10174000A02FB12FBC01CD0120E030E0A9010E9403
:101750006D2F882309F4F0C0C090072BD090082B80
:10176000E090092BF0900A2BC701B6010E94712F5F
:101770004B015C01C701B6010E9425326A877B8755
:101780008C879D87C0904120D0904220E0904320DC
:10179000F090442059814D813E812F81852F942FD7
:1017A000A32FB22FBC01CD01A50194010E94C2312B
:1017B0004B015C01A10138852985852F942FA32F2A
:1017C000B22FBC01CD012A853B854C855D850E94E9
:1017D000C2319B01AC01C501B4010E94092F2091C7
:1017E000D8203091D9204091DA205091DB200E94FE
:1017F000C231A30192010E94742F20E030E040E842
:101800005FE30E94092F6A877B878C879D87809082
:101810004D2090904E20A0904F20B0905020B7FACD
:10182000B094B7F8B094C701B601A30192010E9429
:10183000742F20E030E040E85FE30E94082F9B0116
:10184000AC01C501B4010E94C231A70196010E94FA
:10185000C231A70196010E94C231FE85EF85502F4B
:10186000412F0F2F1E2F252F342FA90198010E94E1
:10187000742F9B01AC016A857B858C859D850E94B8
:10188000C231C62EF72E882EE92E862F9F2DA82D29
:10189000BE2DBC01CD01F981ED815E814F810F2FFD
:1018A0001E2F252F342FA90198010E94C231A301B8
:1018B00092010E94742F9B01AC016091D420709121
:1018C000D5208091D6209091D7200E94092FDC014D
:1018D000CB018093D4209093D520A093D620B093B1
:1018E000D7208C2D9F2DA82DBE2DBC01CD01F1013F
:1018F000588549850F2F1E2F252F342FA9019801B8
:101900000E94C231A30192010E94742F9B01AC017D
:101910006091D0207091D1208091D2209091D320DD
:101920000E94092FDC01CB018093D0209093D1201D
:10193000A093D220B093D3202F96CDBFDEBFDF91EE
:10194000CF911F910F91FF90EF90DF90CF90BF90BC
:10195000AF909F908F907F906F905F904F903F904F
:101960002F9008952F923F924F925F926F927F92A5
:101970008F929F92AF92BF92CF92DF92EF92FF929F
:101980000F931F93CF93DF93CDB7DEB76E97CDBF85
:10199000DEBFC090072BD090082BE090092BF09071
:1019A0000A2B8090512090905220A0905320B0900C
:1019B0005420C701B6010E94712F6D877E878F87E3
:1019C000988B4090492050904A2060904B20709016
:1019D0004C20C501B4012D853E854F8558890E9454
:1019E000C23169837A838B839C83C301B2012091C6
:1019F000FF2A3091002B4091012B5091022B0E9425
:101A0000C2319B01AC0169817A818B819C810E94EA
:101A1000082F362E272E89839987C701B6010E9489
:101A200025326D837E838F839887C501B4012D8114
:101A30003E814F8158850E94C2316B017C01C301F8
:101A4000B2012091032B3091042B4091052B509132
:101A5000062B0E94C2319B01AC01C701B6010E9456
:101A6000082FF62EE72EC82E892E80E090E0DC01AC
:101A70008093D4209093D520A093D620B093D720E4
:101A80008093D0209093D120A093D220B093D320E4
:101A900003EC1AE280E090E05C01D8018D918D01A9
:101AA000882319F0C5010E94950A0894A11CB11C55
:101AB000B6E0AB16B10489F7A10139812985852FDC
:101AC000922DA32FB22FBC01CD012091D4203091B3
:101AD000D5204091D6205091D7200E94092F362E34
:101AE000272E182F092FA701852F9E2DAC2DB82D3D
:101AF000BC01CD012091D0203091D1204091D22045
:101B00005091D3200E94092F862E472EB82EA92E41
:101B10008091F72A9091F82AA091F92AB091FA2A97
:101B200089879A87AB87BC878091FB2A9091FC2A92
:101B3000A091FD2AB091FE2A898B9A8BAB8BBC8B2E
:101B4000C0904520D0904620E0904720F09048205B
:101B500029853A854B855C855058C701B6010E949E
:101B6000C2319B01AC01F101B8018F2F9E2FA72F2D
:101B7000B62FBC01CD010E94092F698F7A8F8B8F00
:101B80009C8F29893A894B895C895058C701B601D5
:101B90000E94C2319B01AC01B501882D942DA72F65
:101BA000B62FBC01CD010E94092F362E272E8D8F16
:101BB0009E8F8090FF2A9090002BA090012BB090D8
:101BC000022B8091032B9091042BA091052BB091B7
:101BD000062B89839A83AB83BC83C501B401A5011D
:101BE00094010E94C2316B017C0169817A818B81F1
:101BF0009C819B01AC010E94C2319B01AC01C701D9
:101C0000B6010E94092F0E942F326B017C01409087
:101C1000592050905A2060905B2070905C2060E0CA
:101C200070E080E89FEB20913D2030913E20409174
:101C30003F20509140200E94742F6D8B7E8B8F8BA4
:101C4000988FC501B401A70196010E94742F9B01D2
:101C5000AC016D817E818F8198850E94C2316D8338
:101C60007E838F83988769817A818B819C81A7018C
:101C700096010E94742F9B01AC016D857E858F8536
:101C800098890E94C2319B01AC016D817E818F8158
:101C900098850E94082F9B01AC016D897E898F89F0
:101CA000988D0E94C231A30192010E94C2312091FD
:101CB000072B3091082B4091092B50910A2B0E9441
:101CC000092F8B017C01862F912FAE2DBF2D809384
:101CD000072B9093082BA093092BB0930A2BBC01E0
:101CE000CD0120ED3FE049EC50E40E944E31181642
:101CF000B4F4802F912FAE2DBF2DBC01CD0120ED6E
:101D00003FE049EC50E40E94082FDC01CB018093B6
:101D1000072B9093082BA093092BB0930A2BC0900C
:101D2000072BD090082BE090092BF0900A2BC701CD
:101D3000B60120E030E0A9010E946D2F87FF12C09C
:101D4000C701B60120ED3FE049EC50E40E94092FA5
:101D5000DC01CB018093072B9093082BA093092BD8
:101D6000B0930A2B598D4A8D3B8D2C8D852F942F46
:101D7000A32FB22FBC01CD01A30192010E94C23159
:101D80009B01AC01C501B4010E94092F062FB72E9B
:101D9000C82EA92E862F9B2DAC2DBA2D8093FF2AFD
:101DA0009093002BA093012BB093022BA1013D8DAA
:101DB0002E8D852F922DA32FB22FBC01CD01A30113
:101DC00092010E94C2319B01AC0169817A818B81B1
:101DD0009C810E94092F162F872EF82EE92E97013D
:101DE000862F982DA32FB22F8093032B9093042B33
:101DF000A093052BB093062B802F9B2DAC2DBA2DD5
:101E0000BC01CD01A30192010E94C2319B01AC0132
:101E100069857A858B859C850E94092FDC01CB0121
:101E20008093F72A9093F82AA093F92AB093FA2A7C
:101E30009701812F982DA32FB22FBC01CD01A301B3
:101E400092010E94C2319B01AC0169897A898B8918
:101E50009C890E94092FDC01CB018093FB2A90937F
:101E6000FC2AA093FD2AB093FE2A5091072B4091A3
:101E7000082B3091092B20910A2B852F942FA32F0B
:101E8000B22FBC01CD016E96CDBFDEBFDF91CF91E9
:101E90001F910F91FF90EF90DF90CF90BF90AF9088
:101EA0009F908F907F906F905F904F903F902F907A
:101EB0000895CF93DF93CDB7DEB72C97CDBFDEBFAC
:101EC000562F8B831D82882349F0813009F04BC047
:101ED0002F8338874E8382E090E043C080913B2B74
:101EE00090913C2BA0913D2BB0913E2B8093DD2A0D
:101EF0009093DE2AA093DF2AB093E02A80913F2BB3
:101F00009091402BA091412BB091422B8093E12ADC
:101F10009093E22AA093E32AB093E42AE5EDFAE253
:101F20008091F72A9091F82AA091F92AB091FA2A83
:101F30008093D52A9093D62AA093D72AB093D82AF3
:101F40008091FB2A9091FC2AA091FD2AB091FE2A53
:101F500084839583A683B783EF83F8874E8380E1DC
:101F600090E089879A878EEE90E2BE016F5F7F4F87
:101F7000452F50E00E948D232C96CDBFDEBFDF9110
:101F8000CF910895CF92DF92EF92FF920E94EE07D9
:101F90006B017C0180E06FE340E050E020E030E244
:101FA0000E94590F8091C22A8823C1F08091A42AEF
:101FB0008823A1F08091BC2A9091BD2AC297883CC9
:101FC000910550F481E06FE344E150E021E030E21C
:101FD0000E94590F10925D201092A42A80915D20DA
:101FE000882369F4C701B60120E030E046E153E4FC
:101FF0000E94C2310E94712F6B017C011FC0C7017A
:10200000B60120E030E048E452E40E94C2310E9470
:10201000712F6B017C019F7727E73EEB4FE75FE372
:102020000E946D2F87FF0AC00F2EF0E0CF2EF0E048
:10203000DF2EF0E0EF2EF0E0FF2EF02D8C2D9D2D09
:10204000AE2DBF2DBC01CD01FF90EF90DF90CF9062
:1020500008958F929F92AF92BF92CF92DF92EF92AC
:10206000FF92CF93DF93EC010E94B20C6B017C01D5
:102070000E94EE074B015C0180E06FE340E050E01E
:1020800020E030E20E94590F2F978091B42A90915E
:10209000B52A8C179D07DCF580E090E0DC01809389
:1020A000B02A9093B12AA093B22AB093B32A609138
:1020B000AC2A7091AD2A8091AE2A9091AF2A2AE085
:1020C00037ED43EA5BE30E94092F9B01F82FE92FCC
:1020D000462F532F682F792F4093AC2A5093AD2A67
:1020E0006093AE2A7093AF2A822F932FAF2FBE2F0B
:1020F000BC01CD0120E030E040E85FE30E944E31BA
:102100001816D4F580E090E0A0E8BFE32DC0609100
:10211000B02A7091B12A8091B22A9091B32A2DEC05
:102120003CEC4CE45DE30E94092F9B01F82FE92F62
:10213000462F532F682F792F4093B02A5093B12AFE
:102140006093B22A7093B32A822F932FAF2FBE2FA2
:10215000BC01CD012DEC3CEC4CEC5EEB0E94C2319D
:102160000E94E12FDC01CB018093AC2A9093AD2A31
:10217000A093AE2AB093AF2A8091C22A882399F106
:102180008091A42A882379F18091B42A9091B52A6C
:1021900021E08F3092073CF18091BA2A9091BB2ABE
:1021A000C2978436910550F481E06FE344E050E03B
:1021B00021E030E20E94590F10925D208091BA2AEE
:1021C0009091BB2A865990408436910550F481E065
:1021D0006FE342E050E021E030E20E94590F10929C
:1021E0005D201092A42A80915D20882319F0C701F8
:1021F000B60102C0C501B40120E030E046E153E47D
:102200000E94C2310E94712F2091AC2A3091AD2AD8
:102210004091AE2A5091AF2A0E94C231472F382FE9
:10222000292F862F942FA32FB22FBC01CD01DF9130
:10223000CF91FF90EF90DF90CF90BF90AF909F90A5
:102240008F9008954F925F926F927F928F929F929C
:10225000AF92BF92CF92DF92EF92FF920F931F93B4
:10226000CF93DF938091C22A882309F18091BC2A01
:102270009091BD2AC297893C9105C8F48091A42A07
:102280008823A9F081E068E041E050E025E030E2F9
:102290000E94590F80E090E0DC018093E92A90933E
:1022A000EA2AA093EB2AB093EC2A1092A42A8091F8
:1022B000A02A8823D9F080E090E0DC018093E92A0D
:1022C0009093EA2AA093EB2AB093EC2A8091A42A57
:1022D000882361F01092A02A1092A42A81E068E07D
:1022E00041E050E025E030E20E94590F8090E92A59
:1022F0009090EA2AA090EB2AB090EC2AC501B40194
:1023000090580E94E12F2B013C01C090E52AD0900B
:10231000E62AE090E72AF090E82AC701B6010E9479
:1023200025329B01AC01C301B2010E94C231462E8D
:10233000072F782E692EC701B60120E030E040E873
:102340005FE30E94092F162FD72FC82FC92E862F83
:102350009D2FAC2FBC2D8093E52A9093E62AA09365
:10236000E72AB093E82ABC01CD0120ED3FE049EC1B
:1023700050E40E944E311816B4F4812F9D2FAC2FDB
:10238000BC2DBC01CD0120ED3FE049EC50E40E94A2
:10239000082FDC01CB018093E52A9093E62AA093D5
:1023A000E72AB093E82AC501B4012DEC3CEC4CECD3
:1023B0005DE30E94092F9B01F82FE92F462F532F31
:1023C000682F792F4093E92A5093EA2A6093EB2AE9
:1023D0007093EC2A822F932FAF2FBE2FBC01CD011B
:1023E00020E030E040EA51E40E944E31181664F4D7
:1023F00080E090E0A0EAB1E48093E92A9093EA2A91
:10240000A093EB2AB093EC2A9301842D902FA32F55
:10241000B62DBC01CD01DF91CF911F910F91FF909F
:10242000EF90DF90CF90BF90AF909F908F907F9074
:102430006F905F904F9008954F925F926F927F924E
:102440008F929F92AF92BF92CF92DF92EF92FF92C4
:102450008091F62A882309F054C080E090E0DC01E6
:102460008093EE2A9093EF2AA093F02AB093F12A5A
:102470008093F22A9093F32AA093F42AB093F52A3A
:102480001092A12A8091C22A882321F18091A22A48
:10249000882399F58091BA2A9091BB2AC297893CEA
:1024A000910508F0AEC081E08093A02A8093F62ABF
:1024B0008FEF93EDA0E381509040A040E1F700C082
:1024C000000081E068E041E050E025E030E20E9459
:1024D000590F97C08091A02A882351F081E0809302
:1024E000F62A68E041E050E025E030E20E94590F12
:1024F0008091A22A882309F484C081E08093F62A7F
:1025000080C0C090F22AD090F32AE090F42AF09094
:10251000F52AC701B60120E030E040EE50E40E9409
:102520006D2F87FF58C06091EE2A7091EF2A80913D
:10253000F02A9091F12A20E030E040E05FE30E9431
:10254000092FDC01CB018093EE2A9093EF2AA09310
:10255000F02AB093F12AC701B6012DEC3CEC4CEC0B
:102560005DE30E94092F9B01F82FE92F462F532F7F
:10257000682F792F4093F22A5093F32A6093F42A1C
:102580007093F52A822F932FAF2FBE2FBC01CD0160
:1025900020E030E040EE5FE30E944E311816DCF49C
:1025A0008091A12A8823B9F481E08093A12A8091A7
:1025B000A02A882331F480919F2A823021F460E19F
:1025C00003C064E101C064E081E041E050E023E049
:1025D00030E20E94590F6091F22A7091F32A8091A3
:1025E000F42A9091F52A20E030E040EE50E40E9479
:1025F0004E3187FD06C01092F62A1092A22A109240
:10260000A02AC090F22AD090F32AE090F42AF09009
:10261000F52AC701B60190580E94E12F4B015C01D9
:102620006091EE2A7091EF2A8091F02A9091F12A20
:102630000E9425322B013C01C701B601A50194017E
:102640000E94C2312DEC3CEC4CE250E40E94C231BD
:10265000A30192010E94C231462F572F682F792F74
:10266000CB01BA01FF90EF90DF90CF90BF90AF9079
:102670009F908F907F906F905F904F9008958F9272
:102680009F92AF92BF92CF92DF92EF92FF920F9301
:102690001F93CF93DF934B015C018091A32A882382
:1026A00009F464C0C0903F2BD090402BE090412BA8
:1026B000F090422BC701B60120E030E040E85FE334
:1026C0000E94082FDC01CB0180933B2B90933C2B85
:1026D000A0933D2BB0933E2B80E06CE140E050E0B6
:1026E00020E030E20E94590FC501B40120913F2B38
:1026F0003091402B4091412B5091422B0E94092F49
:10270000D62FC72F182F092FAE019801852F942F90
:10271000A32FB22F80933F2B9093402BA093412B5C
:10272000B093422BBC01CD0120ED3FE049EC50E4D9
:102730000E944E3118160CF0A9C0AE019801852FE9
:10274000942FA32FB22FBC01CD0120ED3FE049EC27
:1027500050E40E94082FDC01CB0180933F2B909323
:10276000402BA093412BB093422B90C060914F2BF4
:102770007091502B8091512B9091522B20E030E0A2
:10278000A9010E946D2F882329F1C090672BD0905A
:10279000682BE090692BF0906A2BC0923F2BD0926F
:1027A000402BE092412BF092422BC701B60120E072
:1027B00030E040E85FE30E94082FDC01CB0180930A
:1027C0003B2B90933C2BA0933D2BB0933E2B80E072
:1027D0006CE125C0C090572BD090582BE090592B1E
:1027E000F0905A2BC701B60120E030E0A9010E9409
:1027F0006D2F8823D9F0C701B60120E030E040E812
:102800005FE30E94082FDC01CB0180933B2B909368
:102810003C2BA0933D2BB0933E2B80E060E140E049
:1028200050E020E030E20E94590F30C0C0905F2B92
:10283000D090602BE090612BF090622BC701B60125
:1028400020E030E0A9010E946D2F8823A9F0C70184
:10285000B60120E030E040E85FE30E94082FDC0191
:10286000CB0180933B2B90933C2BA0933D2BB093BB
:102870003E2B80E064E0D3CF0F2EF0E0CF2EF0E0CF
:10288000DF2EF0E0EF2EF0E0FF2EF02DC701B601B5
:102890000E942532462F572F682F792FCB01BA017E
:1028A000DF91CF911F910F91FF90EF90DF90CF902C
:1028B000BF90AF909F908F900895CF93DF93C0917A
:1028C000812BD091822BBE01882777FD8095982F90
:1028D0000E94403024E437E746E55EE30E94C231BF
:1028E0000E94712F2DEC3CEC4CEC5EE30E94C23157
:1028F0002AE939E949E15FE30E94092F20919E2AE4
:10290000222339F02196C093812BD093822B1092F1
:102910009E2A382F292F862F972FA32FB22FBC0145
:10292000CD010E943F13462F572F682F792FCB01DF
:10293000BA01DF91CF910895CF92DF92EF92FF928B
:10294000C0907F2BD090802BB601882777FD809593
:10295000982F0E94403024E437E746E55EE30E946A
:10296000C2310E9425329B01AC010E94C2319B0101
:10297000F82FE92F462F532F682F792F4093AC2A39
:102980005093AD2A6093AE2A7093AF2A822F932F73
:10299000AF2FBE2FBC01CD012DEC3CEC4CEC5DE328
:1029A0000E946D2F87FF0CC08DEC9CECACECBDE35E
:1029B0008093AC2A9093AD2AA093AE2AB093AF2A0D
:1029C00080919E2A882349F00894C11CD11CC09292
:1029D0007F2BD092802B10929E2AC090AC2AD09050
:1029E000AD2AE090AE2AF090AF2A6AE979E989E150
:1029F0009FE30E943F139B01AC01C701B6010E94F7
:102A0000C231462F572F682F792FCB01BA01FF9083
:102A1000EF90DF90CF9008954F925F926F927F92E8
:102A20008F929F92AF92BF92CF92DF92EF92FF92DE
:102A30000F931F93CF93DF938091A32A882341F0B4
:102A400081E06FE344E150E027E030E20E94590F5B
:102A5000EFE4FBE278E1C72ED12CCE0EDF1EABE017
:102A6000BBE2CD01489603EC1AE226E030E040E0FC
:102A700050E0BA014193519361937193E6014993F8
:102A80005993699379936E014D935D936D937D9303
:102A9000EC014993599369937993CE01E801199216
:102AA0008E012150304031F740E050E060EB71E49E
:102AB00040933B2B50933C2B60933D2B70933E2BCC
:102AC00080E090E0A0E2B2E480933F2B9093402B13
:102AD000A093412BB093422B0F2EF9ECCF2EF6E7AB
:102AE000DF2EFEE3EF2EFEE3FF2EF02DC092432BF0
:102AF000D092442BE092452BF092462B0F2EFAE910
:102B00008F2EF9E99F2EF9E9AF2EF0ECBF2EF02DB4
:102B10008092472B9092482BA092492BB0924A2B3F
:102B20000F2EF0E04F2EF0E05F2EF8E96F2EF0E46C
:102B30007F2EF02D40924B2B50924C2B60924D2BC0
:102B400070924E2B2091B42A3091B52AD1E02E30CC
:102B50003D07E4F58DEC9CECACE2B0E48093F72A01
:102B60009093F82AA093F92AB093FA2A83E393E387
:102B7000A7E9B2E48093FB2A9093FC2AA093FD2A54
:102B8000B093FE2A83E393E3A3E7B0E48093FF2AA4
:102B90009093002BA093012BB093022B86E696E630
:102BA000A6EABFE38093032B9093042BA093052BFD
:102BB000B093062B80E090E0DC018093072B90938C
:102BC000082BA093092BB0930A2B28C04093F72A17
:102BD0005093F82A6093F92A7093FA2A8093FB2A7B
:102BE0009093FC2AA093FD2AB093FE2AC092FF2A5C
:102BF000D092002BE092012BF092022B8092032BBB
:102C00009092042BA092052BB092062B4092072B9A
:102C10005092082B6092092B70920A2B1092A22AD4
:102C20001092A12A1092A02A10929E2A1092F62A9F
:102C300080E090E0A0EAB1E48093E92A9093EA2A48
:102C4000A093EB2AB093EC2A80E090E0DC01809323
:102C5000AC2A9093AD2AA093AE2AB093AF2A0E94DB
:102C6000DE2C60E070E0CB010E94ED2CDF91CF9173
:102C70001F910F91FF90EF90DF90CF90BF90AF909A
:102C80009F908F907F906F905F904F9008950F93DB
:102C90001F93CF93DF938C01DC011A96CC911A9786
:102CA000C63008F0E9C012969C911297913009F055
:102CB00096C01696ED91FC9117978081EC2FF0E06D
:102CC000ED53F54D9083893309F47EC08A3310F5B6
:102CD000843309F46AC0853380F4813309F45AC01F
:102CE000823320F4803309F07AC071C0823309F452
:102CF00056C0833309F073C055C0863309F45BC0F6
:102D0000863308F455C0873309F458C0883309F076
:102D100066C057C0813699F1823670F4893441F12A
:102D20008A3420F4843409F05AC014C08235C9F0C2
:102D30008A3509F054C00BC0833649F1833620F13F
:102D4000893609F44AC0823709F049C013C081E0CE
:102D50008093A72A1092A52A1092AB2A0E94CF2C0A
:102D60003EC09093A52A9093AB2A0E94DE2C37C0D8
:102D70000E940C151092B42A1092B52A30C090937C
:102D8000A22AC0939F2A2BC09093A02A28C01092F9
:102D90005D2025C01092B42A1092B52A1EC086E983
:102DA00090E017C082ED90E014C08EE091E011C079
:102DB0008CE291E00EC088E691E00BC084EA91E0DD
:102DC00008C080EE91E005C08AE392E002C086E789
:102DD00092E08093B42A9093B52A0E940C15F801D2
:102DE0008281882309F048C0D0E0FE01ED53F54D03
:102DF00081E08083D80116964D915C9117979E01D2
:102E00002B5F3F4F220F331F220F331FB901655C29
:102E1000744DFA0180859185A285B385FB0180837D
:102E20009183A283B3832B96CC0FDD1FCC0FDD1FC4
:102E3000BE01655C744DFA0184859585A685B785CC
:102E4000FB0180839183A283B3832950354DFA011E
:102E500080819181A281B381F90180839183A283D2
:102E6000B383C950D54DFA0184819581A681B7817C
:102E700088839983AA83BB83DF91CF911F910F91A0
:102E800008958FEF99E20E94CB1C009709F45AC174
:102E90008FEF99E20E945D1E8B3109F442C08A35A2
:102EA00009F041C081E06FE344E150E029E030E205
:102EB0000E94590F8091D12A9091D22AA091D32AB1
:102EC000B091D42A8854944FAF4FBF4F8093CD2AEE
:102ED0009093CE2AA093CF2AB093D02AE0E2F6E0D6
:102EE00022E00AC027838FEF93ECA9E08150904045
:102EF000A040E1F700C000004091D12A5091D22AB1
:102F00006091D32A7091D42A8091CD2A9091CE2AB3
:102F1000A091CF2AB091D02A481759076A077B079A
:102F200008F30E94002F843459F41092A52A1092BD
:102F3000AB2A81E06FE344E150E02BE030E20CC0CB
:102F4000823569F481E08093A52A8093AB2A6FE3F0
:102F500044E150E02DE030E20E94590F0895863799
:102F600021F5ADB7BEB71897ADBFBEBFEDB7FEB781
:102F7000319681EF99E211968D939C9312978EE290
:102F800092E08283938383EB94E0AA2797FDA09538
:102F9000BA2F84839583A683B7830E94CD328DB7E1
:102FA0009EB708968DBF9EBF0895843659F48091D0
:102FB000A92A882319F01092A92A089581E0809304
:102FC000A92A0895893439F481E06FE344E150E09F
:102FD0002FE030E220C0893659F481E06FE344E10C
:102FE00050E027E030E20E94590F0E940C1508952E
:102FF000823749F481E06FE344E150E021E130E2BF
:103000000E94590F0CC0813379F481E06FE344E1F1
:1030100050E023E130E20E94590F0E940C151092FB
:10302000B42A1092B52A0895823369F481E06FE3DF
:1030300044E150E025E130E20E94590F0E940C1556
:1030400086E990E068C0833369F481E06FE344E18E
:1030500050E027E130E20E94590F0E940C1582EDEA
:1030600090E059C0843369F481E06FE344E150E0BB
:1030700029E130E20E94590F0E940C158EE091E088
:103080004AC0853369F481E06FE344E150E02BE10D
:1030900030E20E94590F0E940C158CE291E03BC077
:1030A000863369F481E06FE344E150E02DE130E2E2
:1030B0000E94590F0E940C1588E691E02CC08733BE
:1030C00069F481E06FE344E150E02FE130E20E94D7
:1030D000590F0E940C1584EA91E01DC0883369F4F1
:1030E00081E06FE344E150E021E230E20E94590FB9
:1030F0000E940C1580EE91E00EC0893389F481E0C6
:103100006FE344E150E023E230E20E94590F0E9455
:103110000C158AE392E08093B42A9093B52A08951F
:10312000803381F481E06FE344E150E025E230E256
:103130000E94590F0E940C1586E792E08093B42AF2
:103140009093B52A08951F920F920FB60F920BB667
:103150000F9211242F933F934F935F936F937F931D
:103160008F939F93AF93BF93EF93FF938091D12A57
:103170009091D22AA091D32AB091D42A0196A11D70
:10318000B11D8093D12A9093D22AA093D32AB093D1
:10319000D42A6091D12A7091D22A8091D32A909119
:1031A000D42A24E630E040E050E00E94A732DC015F
:1031B000CB010097A105B10529F481E08093A62AEF
:1031C0008093AA2A6091D12A7091D22A8091D32A21
:1031D0009091D42A28EC30E040E050E00E94A732E1
:1031E000DC01CB010097A105B10509F0A3C081E086
:1031F0008093A42A8091C92A9091CA2AA091CB2AAF
:10320000B091CC2A0196A11DB11D8093C92A90933B
:10321000CA2AA093CB2AB093CC2A8091C22A8823B1
:1032200009F485C00E942C058093C02A9093C12A7E
:103230009C0121503040293F310508F58093BE2A7A
:103240009093BF2A20915F20222351F02091B82A29
:103250003091B92A280F391F2093B82A3093B92A00
:1032600020915E20222379F02091B62A3091B72A4E
:10327000280F391F2093B62A3093B72A04C0109222
:103280005F2010925E208091C92A9091CA2AA09155
:10329000CB2AB091CC2A80FD1AC080915F20882370
:1032A00059F08091B82A9091B92A96958795809384
:1032B000BC2A9093BD2A04C01092BC2A1092BD2A49
:1032C0001092B82A1092B92A81E080935F20609111
:1032D000C92A7091CA2A8091CB2A9091CC2A23E0E6
:1032E00030E040E050E00E94A732DC01CB010097C3
:1032F000A105B105E1F480915E20882369F08091F9
:10330000B62A9091B72A63E070E00E9493326093EE
:10331000BA2A7093BB2A04C01092BA2A1092BB2A10
:103320001092B62A1092B72A81E080935E2081E045
:103330008093A82A6091D12A7091D22A8091D32AB1
:103340009091D42A28EE33E040E050E00E94A7326A
:10335000DC01CB010097A105B105E9F42091AB2A6E
:10336000222349F08091B42A9091B52A0196809346
:10337000B42A9093B52A81E080935D2080939E2AA1
:103380001092BE2A1092BF2AE0E2F6E0222311F446
:10339000848301C014828EEE90E20E94E425FF91A6
:1033A000EF91BF91AF919F918F917F916F915F91BD
:1033B0004F913F912F910F900BBE0F900FBE0F902A
:1033C0001F9018959B014091B42A5091B52A481737
:1033D000590761F48091A32A882341F081E06FE3CB
:1033E00044E150E00E94590F0E940C15089587E4B3
:1033F00096E18093F5269093F6268FEF91EEA4E068
:1034000081509040A040E1F700C000000E94DE0320
:103410000E948F2C0E940C150E942105ADB7BEB7EB
:103420001897ADBFBEBFEDB7FEB7319681EF99E2F9
:1034300011968D939C93129783E492E082839383F9
:1034400083EB94E0AA2797FDA095BA2F84839583F8
:10345000A683B7830E94CD32EDB7FEB73896EDBF95
:10346000FEBF0E9474058093C22A882311F088E071
:1034700001C081E0E0E2F6E084838FEF9FE4A3ECFB
:1034800081509040A040E1F700C000008091D12A17
:103490009091D22AA091D32AB091D42A8053984FE8
:1034A000AF4FBF4F8093CD2A9093CE2AA093CF2ABF
:1034B000B093D02A0CC0222361F081E06FE344E195
:1034C00050E027E230E20E94590F1092AA2A209180
:1034D000AA2A4091D12A5091D22A6091D32A709180
:1034E000D42A8091CD2A9091CE2AA091CF2AB09152
:1034F000D02A481759076A077B07E8F28091C32A48
:10350000882379F48091C52A882359F08091C62AAE
:10351000882339F08091C72A882319F481E08093A9
:10352000A32AC0E0D0E010E000E031EFE32E39E262
:10353000F32E46E9C42E42E0D42E5BE6A52E52E0DF
:10354000B52E60E6862E62E0962E8091A72A88230B
:10355000C1F18091D12A9091D22AA091D32AB09121
:10356000D42A8854944FAF4FBF4F8093CD2A909365
:10357000CE2AA093CF2AB093D02AE0E2F6E022E050
:103580000AC027838FEF93ECA9E081509040A040C0
:10359000E1F700C000004091D12A5091D22A6091F9
:1035A000D32A7091D42A8091CD2A9091CE2AA091CD
:1035B000CF2AB091D02A481759076A077B0708F32A
:1035C0004BC10E9441178091C22A882341F180910A
:1035D000AB2A882321F58091BA2A9091BB2AC39700
:1035E000873C9105E0F481E06FE344E150E02DE099
:1035F00030E20E94590F8FEF93ECA9E08150904088
:10360000A040E1F700C0000081E06FE344E150E03A
:1036100023E130E20E94590F81E08093AB2A809130
:10362000AB2A882309F42BC18091AA2A882309F4A4
:1036300017C18091B42A9091B52A863991056CF40E
:1036400086E990E00E94291020E030E044EB52E44B
:103650000E94C231EB01182F092F86E990E065E145
:1036600070E20E94E2198091B42A9091B52A87599C
:1036700090408B33910558F40E945D1420E030E0B7
:1036800044E352E40E94C231EB01182F092F82ED6E
:1036900090E067E170E20E94E2198091B42A909173
:1036A000B52A835D90408B33910558F40E949C1499
:1036B00020E030E044EB52E40E94C231EB01182FCD
:1036C000092F8EE091E069E170E20E94E219809199
:1036D000B42A9091B52A8F5091408D31910510F404
:1036E0000E94CF2C8CE291E06BE170E20E94E21923
:1036F0008091B42A9091B52A8D5291408B339105D7
:1037000068F488E691E00E94291020E030E046E964
:1037100052E40E94C231EB01182F092F88E691E094
:103720006DE170E20E94E2198091B42A9091B52A6D
:10373000895691408B33910558F40E94221120E064
:1037400030E044EB52E40E94C231EB01182F092F04
:1037500084EA91E06FE170E20E94E2198091B42A5C
:103760009091B52A855A91408B33910558F40E9467
:103770001C1220E030E044EB52E40E94C231EB0125
:10378000182F092F80EE91E061E270E20E94E219A9
:103790008091B42A9091B52A815E91408935910536
:1037A00058F40E94C20F20E030E044EB52E40E9443
:1037B000C231EB01182F092F8AE392E063E270E235
:1037C0000E94E2198091B42A9091B52A8B539240BD
:1037D0008B33910510F40E94CF2C86E792E065E2CE
:1037E00070E20E94E2198091B42A9091B52AA2E079
:1037F00087379A079CF181E06FE344E150E029E0CC
:1038000030E20E94590F8091D12A9091D22AA09142
:10381000D32AB091D42A8854944FAF4FBF4F80938E
:10382000CD2A9093CE2AA093CF2AB093D02A40914C
:10383000D12A5091D22A6091D32A7091D42A8091B2
:10384000CD2A9091CE2AA091CF2AB091D02A4817A4
:1038500059076A077B0758F30E94002F1092AA2A83
:103860008091A62A882359F098018C2F9D2FA32F91
:10387000B02FBC01CD010E94ED2C1092A62A8091A0
:10388000A82A882309F461CE8091A92A882309F403
:103890005CCE8091AB2A882379F400D00F92EDB7EB
:1038A000FEB7E182F282838294820E94CD320F9031
:1038B0000F900F900F904CC08091C22A882371F115
:1038C0008DB79EB70C978DBF9EBFEDB7FEB73196F3
:1038D000ADB7BEB71196ED92FC921297A282B38259
:1038E0008091B42A9091B52A848395838091C02ACF
:1038F0009091C12A868397838091BC2A9091BD2A9A
:10390000808791878091BA2A9091BB2A828793877A
:103910000E94CD32EDB7FEB73C9618C000D000D063
:10392000EDB7FEB73196ADB7BEB71196ED92FC92EA
:103930001297C282D3828091B42A9091B52A84834F
:1039400095830E94CD32EDB7FEB73696EDBFFEBF30
:103950001092A82AFACD81E090E00E9446020895D4
:1039600080E090E00E944602089502970E94B91CF0
:103970000895FC012585368583859485281B390BA0
:10398000C90137FD03C0468D44FF04C0818592857F
:10399000820F931F0895FC012389348985899689B4
:1039A000281B390BC90137FD03C0468D47FF04C0F2
:1039B00081899289820F931F0895FC01868D80FF73
:1039C0001AC0868D86FD17C01CC04FB7F894858934
:1039D0009689860F971F218932898217930710F0E5
:1039E000821B930B0784F089E02DE80FF91F80817B
:1039F0004FBF90E008958FEF9FEF08958FEF9FEFF7
:103A000008958189928968177907F8F2F7CF282FEE
:103A1000FB01A485B585109761F0ED91FC9111979C
:103A20000484F585E02DCD01622F199580E090E0AA
:103A300008958FEF9FEF0895DC011C968D919C9166
:103A40001D97009749F0DC01ED91FC910280F38114
:103A5000E02D199590E008958FEF9FEF089502975C
:103A60000E94331D0895FC01868D80FF48C08FB7EA
:103A700090E0877090700097D1F5868D85FD3FC0EE
:103A800036C0818185FFFDCF60830895868D85FFD7
:103A900003C0858D882399F5868D85FDFDCF4FB7B1
:103AA000F89483859485A781B085A80FB91F6C937E
:103AB000019683879487268D2F7E268F21853285D8
:103AC0008217930710F01386148623853485858525
:103AD00096852817390719F4868D8062868F0480B1
:103AE000F581E02D8381826083834FBF08958185B6
:103AF0009285009759F60480F581E02DC2CF089594
:103B000028E0803A9207F1F028E0803B9207E1F04C
:103B100029E0803A9207D1F029E0803B9207C1F07A
:103B20002AE0803A9207B1F02AE0803B9207A1F0A8
:103B30002BE0803A920791F02BE0803B920781F4D2
:103B400087E0089580E0089583E0089581E0089576
:103B500084E0089582E0089585E0089586E0089560
:103B60008FEF0895883048F4E82FF0E0EE0FFF1F44
:103B7000E058FF4D80819181089580E090E00895A4
:103B8000883030F4E82FF0E0E057FF4D8081089551
:103B900080E00895CF93DF93EC01CB0126E630E27D
:103BA000288339832E5E3F4F2A833B836C837D833A
:103BB0001F82188619861A861B861C861D861E86FD
:103BC0001F86188A198A1A8A1B8A1C8A1D8A1E8ACD
:103BD0001F8A188E198E1A8E1B8E1C8E1D8E20EA3F
:103BE0002E8F0E94801D8E83E82FF0E0EE0FFF1FC6
:103BF000ED57F44DC083D183DF91CF910895FC013F
:103C000067837087418752871386148615861686C8
:103C1000868D8F7D868F868D8061868F0895FC01CD
:103C20006787708B418B528B138A148A158A168A88
:103C3000868D8F77868F868D8064868F868D80FFB8
:103C40000FC0A481B58113968C9113978F7C139626
:103C50008C9313970480F581E02D838180628383A8
:103C60000895CF93DF93EC01EF89F88D309711F130
:103C700089859A85009719F48B8D86831BC0E8810E
:103C8000F9810190F081E02DCE01199529893A89B9
:103C9000A901569547955695479536952795420F14
:103CA000531FEF89F88D2B8D4817590710F4258382
:103CB00001C02683DF91CF910895CF93DF93FC015C
:103CC000868D80FF3DC08FB790E087709070009721
:103CD000E1F5868D86FD34C038C0818187FFFDCF38
:103CE000C0812FC0868D86FF03C0858D882341F556
:103CF000868D86FDFDCFDFB7F89485899689A785E7
:103D0000B089A80FB91FCC910196858B968B268D13
:103D10002F77268F218932898217930710F0158A11
:103D2000168A23893489858996892817390719F4D1
:103D3000868D8064868FCF010E94311EDFBF01C057
:103D4000C0E08C2FDF91CF910895818992890097EF
:103D500049F60480F581E02DC0CF9F92AF92BF92CB
:103D6000CF92DF92EF92FF920F931F93CF93DF9347
:103D70000F92CDB7DEB75C016A017B01DC011696BC
:103D80009C90892D29830E94C01D182F892D0E9487
:103D9000B21DFC0181E090E0012E02C0880F991F46
:103DA0000A94E2F7818390E0959587958283298133
:103DB000002329F0E10FF11D3F9688E18083B0E0F8
:103DC000CB16BBE4DB06B0E0EB06B0E0FB0609F483
:103DD00045C0E0E0CE16E6E9DE06E0E0EE06E0E013
:103DE000FE0609F440C0F0E0CF16F1EEDF06F0E089
:103DF000EF06F0E0FF06E1F180E0C81682ECD8069D
:103E000081E0E80680E0F806C1F1222399F0A701DD
:103E10009601F3E0220F331F441F551FFA95D1F787
:103E200060E078E488EE91E00E94A73221503040B3
:103E300081E012C0A7019601E4E0220F331F441F66
:103E4000551FEA95D1F760E078E488EE91E00E9492
:103E5000A7322150304080E090E013C080E09BEF1B
:103E600025EE3CE00EC080E09AEF25EC3CE009C076
:103E700080E09AEF2EE638E004C080E09AEF27E178
:103E800034E0D5011496ED91FC9115972683149694
:103E9000ED91FC911597232F2F709295907F292BF0
:103EA00027831496ED91FC911597882311F08CE1EE
:103EB00001C088E18483F501818992890480F581BC
:103EC000E02D009719F080E2838301C01382D501B1
:103ED0005E968C915E9781605E968C93C5010E9480
:103EE000311E0F90DF91CF911F910F91FF90EF90B6
:103EF000DF90CF90BF90AF909F900895FC01A48178
:103F0000B58113961C92A481B58114961C921497C6
:103F1000868D8E7F868F0895CF93DF93EC0186E6A2
:103F200090E28883998342968A839B83CE010E9484
:103F30007E1FEE81F0E0EE0FFF1FED57F44D108273
:103F40001182DF91CF910895FC01A481B581119672
:103F50008C91119787FF25C02C91868D87FD1EC0FF
:103F600083899489A785B089A80FB91F2C930196DE
:103F7000838B948B268D2F7B268F21893289821704
:103F8000930710F0138A148A2389348985899689C6
:103F90002817390719F4868D8068868FCF010E9413
:103FA000311E0895CF93DF93FC01868D84FD21C0DF
:103FB000C481D58185859685A781B085A80FB91F55
:103FC0002C912883019685879687268D2F7D268FB5
:103FD000218532858217930710F015861686238572
:103FE0003485858596852817390719F4868D806173
:103FF000868F868D84FF06C00480F581E02D838145
:104000008C7F8383DF91CF910895FB0127E03DE111
:10401000208731872CE13DE12287338723E023830A
:104020008487958708950F931F93CF93DF938C0117
:10403000009779F0FC01C481D581898185FF03C097
:10404000C8010E94D21F898187FF03C0C8010E9456
:10405000A41FDF91CF911F910F91089502970E94A5
:1040600032200895FC018FB7F894A481B58113968E
:104070006C9313970480F581E02D928197FFFDCF1B
:104080008FBF089528E0803C920771F029E0803CC2
:10409000920761F02AE0803C920751F02BE0803CCF
:1040A000920741F484E0089581E0089582E0089544
:1040B00083E0089580E00895CF93DF93EC01CB0176
:1040C0002CE930E228833983205F3F4F2A833B83EA
:1040D0006C837D8318860E94422090E08E839F83AC
:1040E000FC01EE0FFF1FEF56F44DC083D183DF912B
:1040F000CF910895DC011496ED91FC9115971082F3
:104100000895CF93DF93EC018CE990E28883998343
:1041100040968A839B83CE010E947A20EE81FF81A4
:10412000EE0FFF1FEF56F44D10821182DF91CF91F9
:104130000895FC018FB7F894A481B58113966C9310
:1041400013970480F581E02D828187FFFDCF838165
:10415000089560E00E949920089502970E94B1207E
:104160000895FC01808580FF10C0A481B581179659
:104170006C93A481B58182E013968C93139704808D
:10418000F581E02D848186FFFDCF0895FC018085B7
:1041900080FF16C0A481B58114968C91149787FD79
:1041A0000AC082E013968C93A481B58114968C91F9
:1041B000149787FFFBCF0480F581E02D8781089558
:1041C00080E0089524E08038920731F024E0803ABE
:1041D000920721F482E0089581E0089580E0089537
:1041E000CF93DF93EC01CB0128EB30E228833983B6
:1041F000205F3F4F2A833B836C837D8318860E9418
:10420000E22090E08E839F83FC01EE0FFF1FE756B4
:10421000F44DC083D183DF91CF910895FC01A48137
:10422000B58111961C92119710860895CF93DF9354
:10423000EC0188EB90E28883998340968A839B8384
:10424000CE010E940E21EE81FF81EE0FFF1FE75687
:10425000F44D10821182DF91CF91089580E090E0BB
:1042600008958FEF9FEF08950F931F93CF93DF93E0
:104270008C01EB0101C0EF01D801ED91FC910280AE
:10428000F381E02DC8011995FE018193882321F067
:104290008D3011F08A3079F71982DF91CF911F911B
:1042A0000F910895CF92DF92EF92FF920F931F9399
:1042B000CF93DF936C017B018A014115510599F081
:1042C0006115710581F0EA01D601ED91FC91028042
:1042D000F381E02DC6011995F70181937F012197A4
:1042E00099F7C80102C080E090E0DF91CF911F9163
:1042F0000F91FF90EF90DF90CF90089580E090E0D5
:1043000008950F931F93CF93DF938C01EB0108C0A7
:10431000D801ED91FC910280F381E02DC80119953F
:1043200069916623A9F7DF91CF911F910F910895AD
:10433000CF92DF92EF92FF920F931F93CF93DF9371
:104340006C017B018A014115510599F061157105D8
:1043500081F0EA01D7016D917D01D601ED91FC91CB
:104360000280F381E02DC6011995219799F7C801C4
:1043700002C080E090E0DF91CF911F910F91FF90FC
:10438000EF90DF90CF900895CF93DF93EC011A82E6
:1043900019861A8681E08F87188E198E1A8E1B8EC9
:1043A0001C8EFE01E358FF4F1082FE01E254FF4FC6
:1043B0001082FE01E95FF94F10821182CE0182580E
:1043C0009F4FFC0180E4DF011D928A95E9F79E0171
:1043D00040E050E060E470E0F901E65BFA4FCA01AA
:1043E000A6E0880F991FAA95E1F781549F4F8C0F83
:1043F0009D1F80839183F901E45BFA4F6083718391
:10440000F901EE5AFA4F10824F5F5F4F2E5E3F4F19
:104410004A30510509F7FE01E250FA4FCE01815CA6
:104420009C4F80839183FE01E050FA4F82E092E03E
:1044300080839183FE01EA5FF94F108282E08093CE
:10444000CA0148E050E060E070E080E090E06BBFBF
:10445000FA0127918227282F22952827022E2695B8
:1044600026952025022E269520252770082E892F97
:10447000269507942795902D8227069427959025B9
:1044800082274F5F5F4F6F4F7F4F46315105610568
:104490007105E9F6888399831092CA018881998110
:1044A00093708854944FA0E0B0E08B879C87AD87D1
:1044B000BE87CE0103960E94A02E83EB94E0AA272C
:1044C00097FDA095BA2F8D839E83AF83B887DF9128
:1044D000CF91089508959C01DC01A358BF4F8C91A2
:1044E000883004F5482F552747FD5095FA01EE0F07
:1044F000FF1FE40FF51FEE0FFF1FEE0FFF1FE20F70
:10450000F31F658F768F9FEF90A3978F11A212A252
:1045100013A214A215A216A217A210A6982F9F5F8D
:104520009C9308958FEF0895FB016381AC0170E0C7
:10453000DA01AF57BF4F8C91861791F4DA01A25878
:10454000BF4F2D913C911197808191812817390798
:1045500039F4DA01A058BF4F9C918281981739F045
:104560007F5F4C5F5F4F703119F781E0089580E005
:104570000895EF92FF920F931F93CF93DF93EC0177
:104580008B010E949422882381F1DE01A254BF4F47
:104590009C91492F552747FD50959A01220F331FB3
:1045A000220F331F2C0F3D1F7EE7E72EF12CE20E6A
:1045B000F31EF80160817181F70160837183F80156
:1045C0006281FA01B096EE0FFF1FEE0FFF1FEC0F96
:1045D000FD1F6083F80143812F573F4FF90140834E
:1045E0009F5F9C9390310CF01C92DF91CF911F91B3
:1045F0000F91FF90EF9008959C0140E050E0F90189
:10460000EE5AFA4F808190E083709070009751F4D9
:10461000F901E45BFA4F808191818617970710F0CA
:10462000842F08954F5F5F4F2E5E3F4F4B305105F3
:1046300031F78FEF0895DF92EF92FF920F931F9360
:10464000CF93DF938C01EB017A01DFB6F894FC0184
:104650008785883231F48A81807F803F09F054C099
:104660000DC0803259F48A81807F803F39F0F80193
:104670008089918980959095E822F92268857985CD
:10468000C8010E94FC2287FD3FC0992787FD9095B5
:10469000880F991FFC0133E0EE0FFF1F3A95E1F7F9
:1046A000E80FF91FEF5BFA4FE00FF11F818981607E
:1046B000818B8AE58083888599850696818392839C
:1046C00088819981838394838A8185838B81868382
:1046D0008C8187838D818087E786F08A20E030E0B7
:1046E0000CC0AE81BF81A20FB31F8C91A185B28592
:1046F000A20FB31F8C932F5F3F4F88859985281792
:10470000390778F315861686DFBEDF91CF911F91AA
:104710000F91FF90EF90DF900895FC01208131818F
:10472000FB0120833183FC012281FB0123832F5F66
:10473000FC0122832FEFFB0122870E941B23089597
:10474000EF92FF920F931F93CF93DF93CDB7DEB716
:104750006497CDBFDEBF8C017B01DB0112968C918B
:1047600012978D3FB9F50F920F928CE693E0EDB75B
:10477000FEB7818392830E94EA32F8018581968197
:10478000A781B0858B839C83AD83BE838381948115
:104790008F8398878EEF8B871D8681E08E87CE0171
:1047A00003968F87988B86E090E0898B9A8B0F9089
:1047B0000F9041E050E0D7011A960C9002C0440FD0
:1047C000551F0A94E2F7C801BE01675F7F4F0E9440
:1047D0008D23F0C18E3FE1F50F920F9289E793E0B0
:1047E000EDB7FEB7818392830E94EA32D701169615
:1047F0002D913C9117971A968C9190E0FC01EE0F49
:10480000FF1FE80FF91FEE0FFF1FEE0FFF1FE00F56
:10481000F11FD9014D915D916D917C91139743A347
:1048200054A365A376A3F701828590E0FC01EE0F07
:10483000FF1FE80FF91FEE0FFF1FEE0FFF1FE00F26
:10484000F11F14968D919C91159787A390A73AC15B
:10485000893F09F05AC10F920F9288E893E0ADB7F3
:10486000BEB711968D939C9312970E94EA32D7019E
:104870001696ED91FC91179780810F900F908138DB
:1048800009F055C081819281A381B4818E37EEE118
:104890009E07E0E5AE07EBE0BE0709F08BC1D8014B
:1048A0001F968C911F97883209F484C10F920F9242
:1048B00086E993E0EDB7FEB7818392830E94EA32E6
:1048C000D80158961D921D921D921C925B97F7017C
:1048D00026813781F90187819085A185B2850F9066
:1048E0000F90F801458156816781708548175907F7
:1048F0006A077B0708F05EC1848B958BA68BB78B0C
:10490000D90115968D919C911697828B938BF70107
:104910008285D80150968C93509751961C9251974E
:1049200088E21F968C931F9788EE93E020C182380F
:1049300009F09EC081819281A381B4818E37EEE11E
:104940009E07E0E5AE07EBE0BE0709F033C1D801F2
:104950001F968C911F97883209F02CC10F920F92ED
:1049600084EA93E0EDB7FEB7818392830E94EA3236
:104970000F900F90CE0101960E94912E00D00F92C1
:1049800083EB93E0ADB7BEB711968D939C931297CE
:10499000F8018289938913968D939C9314970E94B2
:1049A000EA3282EC93E0ADB7BEB711968D939C933B
:1049B000129789819A8113968D939C9314970E94E4
:1049C000EA320F900F900F900F9029813A81F801F1
:1049D000828993892817390741F50F920F9281ED4B
:1049E00093E0ADB7BEB711968D939C9312970E943A
:1049F000EA32F801828993898383948344895589B3
:104A000066897789458356836783708740E050E0E5
:104A100061E070E0408F518F628F738F21E0248FAF
:104A20000F900F900E94AF2E13C00F920F928BED3C
:104A300093E0ADB7BEB711968D939C9312970E94E9
:104A4000EA32F801108E118E128E138E0F900F9095
:104A5000D80119961D921C921A9784E690E0A0E066
:104A6000B0E0F80183879487A587B6871786A2C030
:104A7000833859F581819281A381B4818E37FEE11B
:104A80009F07F0E5AF07FBE0BF0709F093C0D8012F
:104A90001F968C911F97883209F08CC00F920F924D
:104AA00084EE93E0EDB7FEB7818392830E94EA32F1
:104AB000D80158961D921D921D921C925B971F96CD
:104AC0001C921F970F900F9075C0803909F072C02B
:104AD00081819281A381B4818D3AEEED9E07E1EE52
:104AE000AE07EEEFBE0709F065C00F920F9282EF9E
:104AF00093E0ADB7BEB711968D939C9312970E9429
:104B0000EA320F900F900E94002F8B3FA9F50F9271
:104B10000F9289EF93E0EDB7FEB7818392830E94F5
:104B2000EA320F900F90D8011F968C911F97883210
:104B300009F040C0F70180859185F2E082309F073F
:104B4000C9F5D70116964D915C911797FA018081AE
:104B5000782F770F60E0882777FD8095982F4E5F3C
:104B60005F4F21E00E94F02D88EE93E0D801199666
:104B70008D939C931A971EC08C3F91F40F920F92C5
:104B80008CE094E0EDB7FEB7818392830E94EA3215
:104B900002581F4F80E4D8011D928A95E9F792CF01
:104BA000F801E95FF94F0190F081E02D309711F0A5
:104BB000CB0119956496CDBFDEBFDF91CF911F91D8
:104BC0000F91FF90EF9008952F923F924F925F9236
:104BD0006F927F928F929F92AF92BF92CF92DF920D
:104BE000EF92FF920F931F93CF93DF93CDB7DEB772
:104BF000C251D240CDBFDEBF5C0199249C01235835
:104C00003F4FC15FDD4F28833983CF50D240882486
:104C10008A94EEC1F201EE0FFF1FE40DF51DEE0FB9
:104C2000FF1FEE0FFF1FEA0DFB1DC58CD68C8F01F9
:104C30000F5D1F4FD8018D919C911197009709F43A
:104C4000F8C5D601ED91FC910190F081E02DC601EF
:104C50001995009709F4EDC5D601ED91FC910280FC
:104C6000F381E02DC6011995F801808191810197AA
:104C700080839183DFCFD8015F968C915F978F3FC0
:104C800009F07EC0EC2C0D2DD601ED91FC91019028
:104C9000F081E02D8E2D902F1995009709F4E2C533
:104CA000D601ED91FC910480F581E02D8E2D902FA1
:104CB00060E070E019958A35910509F4D3C5D601F5
:104CC000ED91FC910280F381E02D8E2D902F1995AE
:104CD000DBCFD601ED91FC910190F081E02D8E2D7E
:104CE000902F19958330910508F481C1D601ED917B
:104CF000FC910480F581E02D8E2D902F61E070E015
:104D000019953C01D601ED91FC910480F581E02DCF
:104D10008E2D902F62E070E01995382E2224B1017B
:104D20006629772966507040C5010E94FC2287FDE4
:104D30005EC1F201EE0FFF1FE40DF51DEE0FFF1F28
:104D4000EE0FFF1FEA0DFB1D878F992787FD9095BA
:104D5000880F991F9C0163E0220F331F6A95E1F7CA
:104D6000280F391F2A0D3B1DF901EE5AFA4F808199
:104D700082608B7F8083225B3A4FF901108211821F
:104D8000F201EE0FFF1FE40DF51DEE0FFF1FEE0FFA
:104D9000FF1FEA0DFB1D878D992787FD9095880FD2
:104DA000991F8C01B3E0000F111FBA95E1F7080FAE
:104DB000191F0F5B1A4F0A0D1B1D2DE1622E712C5E
:104DC0006E0E7F1ED8011D968D919C911E97893085
:104DD000910508F057C5F30180819181DC01ED91C7
:104DE000FC910190F081E02D1995009709F44AC5D6
:104DF000F801E584F6846801CE0CDF1CD3018D91A7
:104E00009C91DC01ED91FC910280F381E02D1995DC
:104E1000F6018083C7010196D8011D968D939C935E
:104E20001E97D0CFF8018381948189839A8345812D
:104E30004B8386818C8387818D8380858E839B863F
:104E4000818982FD2DC04C3F21F14B3F89F4D50172
:104E50001F968C911F97883209F01CC5292D30E0D0
:104E600050968D919C9151978217930709F012C526
:104E7000F5018785883221F4407F403F09F00AC55B
:104E8000C501BE016F5F7F4F0E94B922882309F4DC
:104E900001C5D80151968C915197846051968C939D
:104EA0007201EE0CFF1CE40CF51CEE0CFF1CEE0C6A
:104EB000FF1CEA0CFB1CEDE1F0E0EE0EFF1ED8013A
:104EC00011968D919C91129703961D962D913C9170
:104ED0001E972817390708F0FEC4F70180819181D9
:104EE000DC01ED91FC910190F081E02D1995009786
:104EF00009F4F1C4F80165847684C3010997C1847B
:104F0000D284C80ED91ED7018D919C91DC01ED9100
:104F1000FC910280F381E02D1995F6018083C30195
:104F20000196D8011D968D939C931E97C8CFD801EA
:104F30001996ED91FC911A97EF83F8873AEFE32EDB
:104F40003FEFF32EE60EF71EE986FA868E81823059
:104F5000A0F1CB84BFE0BC1558F041E050E00C2C30
:104F600002C0440F551F0A94E2F74095509502C0C5
:104F70004FEF5FEFD80117968C91179784FF12C0FF
:104F8000CB01019611968D939C931297CB010597B7
:104F90001B962D913C911C972817390718F0EE0DA0
:104FA000FF1DC082F8018085815080874787508B24
:104FB00081898160818B15861686C501BE016F5F70
:104FC0007F4F0E94A023D80151968C9151978D7FDD
:104FD00051968C935197F201EE0FFF1FE40DF51DD2
:104FE000EE0FFF1FEE0FFF1FEA0DFB1D878E939440
:104FF000492C5524C15FDD4FE881F981CF50D24063
:105000008081992787FD9095481659060CF402CEA9
:10501000C15FDD4F18821982CF50D24095012358CD
:105020003F4FCF5EDD4F28833983C151D240882462
:105030008A94C15FDD4F88819981CF50D240880F1B
:10504000991F6C0113E0CC0CDD1C1A95E1F7C80E1A
:10505000D91E61E475E0C60ED71ECA0CDB1CD60152
:1050600051968C91519780FD4FC021C181E090E015
:10507000002E02C0880F991F0A94E2F7F6012785D7
:105080003089822393230097E9F19A01220F331F7D
:10509000F901E40FF51FEE0FFF1FEE0FFF1FEA0DE2
:1050A000FB1D80A18F3F39F4C15FDD4F6881CF5078
:1050B000D24060A30EC0992787FD9095C15FDD4F58
:1050C000A881B981CF50D2408A179B0711F02224C2
:1050D0003324F901E40FF51FEE0FFF1FEE0FFF1F42
:1050E000EA0DFB1D858D968DDC011296ED91FC91EC
:1050F00013970190F081E02D029619958215930582
:1051000008F41C010F5F04C000E022242A94322C12
:10511000402F50E0CF5EDD4FE881F981C151D24090
:105120008081992787FD9095481759070CF49ECFE9
:10513000992475C081E090E0092C02C0880F991F66
:105140000A94E2F7D6011F962D913C915097822345
:105150009323009709F462C01D96ED90FC901E9772
:1051600031018201000F111F040D151D000F111FC9
:10517000000F111F0A0D1B1D035E1F4F61147104E8
:10518000E1F0B9E0EB16F104C0F4F80180819181FF
:10519000DC011296ED91FC911397D601AE0DBF1D67
:1051A0000280F381E02D02966C9119950894E11C20
:1051B000F11C089461087108E1CF8201000F111FF2
:1051C000040D151D000F111F000F111F0A0D1B1DCF
:1051D000035E1F4F6114710409F1F6018181928110
:1051E0000396E816F906D0F4D8018D919C91FC0144
:1051F00022813381F601A185B285AE0DBF1D1997BD
:10520000F9012281338102966C91F9011995089474
:10521000E11CF11C089461087108DCCF9394492CBF
:105220005524CF5EDD4FA881B981C151D2408C9108
:10523000992787FD9095481659060CF47BCFF60107
:1052400025853685220D331D2587368781819281FC
:1052500003962817390758F181898C7F818BFD01CE
:10526000A081BB27A7FDB09540E01CC081E090E085
:10527000042E02C0880F991F0A94E2F7F6012785D1
:10528000308982239323009761F0FB01EE0FFF1F0B
:10529000E60FF71FEE0FFF1FEE0FFF1FEA0DFB1DBE
:1052A00080A24F5F642F70E06A177B07FCF2C15F3A
:1052B000DD4F28813981CF50D2402F5F3F4FC15FF2
:1052C000DD4F28833983CF50D2402B30310509F090
:1052D000B0CED50119968D919C911A970097E1F067
:1052E000019719968D939C931A970097A9F40F92A2
:1052F0000F9283EA92E0EDB7FEB7818392830E941A
:10530000EA32D50158961D921D921D921C925B9710
:105310001F961C920F900F90F50183859485A585AB
:10532000B6850097A105B10521F00197A109B10942
:1053300026C20785013039F50F920F928DEA92E06F
:10534000EDB7FEB7818392830E94EA328CEF8B83A4
:105350001D820E831F82188619861A860F900F9061
:10536000C501BE016F5F7F4F4FEF5FEF0E948D233E
:1053700088EE93E0A0E0B0E0F50183879487A587ED
:10538000B68717862AC0002359F50F920F9287EC33
:1053900092E0ADB7BEB711968D939C9312970E9481
:1053A000EA328DEF8B831D8281E08E8319861A8607
:1053B0000F900F90C501BE016F5F7F4F4FEF5FEF02
:1053C0000E948D2384E690E0A0E0B0E0F5018387A1
:1053D0009487A587B68780E187871186128688C261
:1053E000003109F021C10F920F9281EE92E0ADB72A
:1053F000BEB711968D939C9312970E94EA3280E378
:1054000095E7A0E0B0E0F50183879487A587B6878C
:105410001786108A118A00D00F928AEF92E0ADB7FA
:10542000BEB711968D939C93129785819681A78123
:10543000B085EDB7FEB783839483A583B6830E94BE
:10544000EA322DB73EB72A5F3F4F2DBF3EBFCC2477
:105450004DE7442E512C4A0C5B1C5CE0252E53E09A
:10546000352E61E0662E712C63C06DB77EB76A5031
:1054700070406DBF7EBF2DB73EB72F5F3F4FADB7BA
:10548000BEB711962D923C921297F901E282F382F7
:105490008701000F111F0E0D1F1D000F111F000FA0
:1054A000111F0A0D1B1DF80183A194A1A5A1B6A18E
:1054B000F90184839583A683B783D80197968D914C
:1054C0009C919897808791870E94EA32F80183A186
:1054D00094A1A5A1B6A12DB73EB7265F3F4F2DBF22
:1054E0003EBFF50145815681678170850097A10512
:1054F000B10591F084179507A607B70768F49301E3
:1055000002C0220F331FEA94E2F780899189822B2F
:10551000932B808B918B0BC0481759076A077B0729
:1055200030F4D50150961D921C9251970CC0C39433
:10553000EC2CFF24F2018081992787FD9095E816D5
:10554000F9060CF492CFD50150968D919C9151970C
:10555000009709F460C00F920F9281E293E0EDB7DB
:10556000FEB7818392830E94EA3289EF8B831D828A
:1055700081E08E83CE010D968F8398878BE090E03B
:1055800089879A8781E88D878EE79EE1A0E5BBE059
:105590008E879F87A88BB98BD50113968D919C918F
:1055A00014978A8B9B8B15968D919D910D90BC9134
:1055B000A02D8C8B9D8BAE8BBF8B0F900F90F50128
:1055C00040895189C501BE016F5F7F4F0E948D23C5
:1055D000D5015C968C915C97882351F080E090E037
:1055E000A1E0B0E0F501808F918FA28FB38F07C04B
:1055F000D50158961D921D921D921C925B9784E6D0
:1056000090E0A0E0B0E0F50183879487A587B68796
:1056100080E287876DC1D5015C968C915C97882369
:1056200009F466C10E94002F003209F0FDC0F501A7
:10563000808D918DA28DB38D8030F0E09F07F1E0D9
:10564000AF07F0E0BF0770F0F501248D222309F4C5
:105650009BC08030F0E09F07F2E0AF07F0E0BF07AB
:1056600008F092C00F920F928CE393E0ADB7BEB7F3
:1056700011968D939C9312970E94EA328BEF8B8345
:105680001D8281E08E83CE010D968F83988782E004
:1056900092E089879A870F900F90F501848D408D55
:1056A000518D628D738D882339F0DB01CA018050E2
:1056B0009040A140B04002C0DB01CA01E9E0B695CC
:1056C000A79597958795EA95D1F78D879E87DE01F7
:1056D0001F968A019B0180E090E02BBFF801E790C4
:1056E000ED9201960F5F1F4F2F4F3F4FF2E080303A
:1056F0009F0799F740505E4F6F4F7F4FD5015896E7
:105700004D935D936D937C935B974F3FBFEF5B072A
:10571000B1E06B07B0E07B0721F58FEFC85FDD4F8D
:105720008883C850D240C75FDD4F8883C950D240BC
:10573000C65FDD4F8883CA50D240C55FDD4F888386
:10574000CB50D240C45FDD4F8883CC50D240C35F82
:10575000DD4F8883CD50D240C25FDD4F8883CE506D
:10576000D240F50140895189C501BE016F5F7F4F6D
:105770000E948D2384E690E0A0E0B0E0F5018387ED
:105780009487A587B687B4C00F920F9281E593E006
:10579000ADB7BEB711968D939C9312970E94EA32D3
:1057A00089EF8B831D8281E08E83CE010D968F83DE
:1057B000988785E090E089879A8782E88D878EE7D1
:1057C0009EE1A0E5BBE08E879F87A88BB98B0F90E9
:1057D0000F90F50140895189C501BE016F5F7F4F70
:1057E0000E948D23F501E358FF4F8081992787FDA3
:1057F0009095F50120E030E008C0178A108E118ED8
:10580000128E138E148E2F5F3F4F3C962817390748
:10581000A4F388EE93E0A0E0B0E0F50183879487DD
:10582000A587B687178664C0083209F461C0178659
:105830005FC08201000F111F040D151D000F111F05
:10584000000F111F0A0D1B1DF801858D968DDC01BF
:10585000ED91FC910190F081E02D1995009709F0F0
:105860000ACAC5CBD601ED91FC910480F581E02DEB
:105870008E2D902F60E070E019958A35910509F022
:10588000B6CB27CAF801858596858930910508F43D
:10589000AECBC8CAF201EE0FFF1FE40DF51DEE0FEF
:1058A000FF1FEE0FFF1FEA0DFB1DD80111968D9112
:1058B0009C91129703961D962D913C911E97821BE9
:1058C000930B81A392A351968C9151978C7F519603
:1058D0008C9351978BCBF801618172819B012D5F75
:1058E0003F4F858596858217930708F020CB7FCBA5
:1058F000CE5EDD4FCDBFDEBFDF91CF911F910F9107
:10590000FF90EF90DF90CF90BF90AF909F908F90DF
:105910007F906F905F904F903F902F900895E0E8B8
:10592000F6E080E1818380E2818380919F2B882350
:10593000F1F4E0E4FAE08EE897E286A397A381E130
:1059400093E080A791A782A793A78091400A8560E2
:105950008093400A8091410A836081838091410A4B
:10596000806181838091410A8062818308958130C2
:10597000A9F4E0E4FAE08EE897E286A397A32091E9
:10598000460A226026832091400A25602093400A1F
:1059900086A397A38091470A8260878308958091A8
:1059A0009F2B882351F4E0E4FAE08091410A8F7E36
:1059B00081838091410A8F7D8183089580919F2BFF
:1059C000882351F4E0E4FAE08091410A8061818308
:1059D0008091410A806281830895CF92DF92EF9295
:1059E000FF926B017C0180919F2B882391F5609140
:1059F000A12B7091A22B882777FD8095982F0E946C
:105A00004030A70196010E946D2F882311F1C70134
:105A1000B60120E030E040EA50E40E94C23120E0CC
:105A200030E444E454E40E94092F0E941230DC0167
:105A3000CB01E0E4FAE080AF91AF82AF93AFC70152
:105A4000B6010E940D30DC01CB018093A12B909315
:105A5000A22BFF90EF90DF90CF9008951F920F92AE
:105A60000FB60F920BB60F9211242F933F934F93C3
:105A70005F936F937F938F939F93AF93BF93EF93B6
:105A8000FF93E0E2F6E0848182608483E0E8F6E060
:105A900084818061848384818062848360916020BA
:105AA00070916120882777FD8095982F0E94403063
:105AB0000E94ED2CFF91EF91BF91AF919F918F913B
:105AC0007F916F915F914F913F912F910F900BBEFE
:105AD0000F900FBE0F901F9018951F920F920FB648
